:020000020000FC
:060000000C943400000026
:020040000000BE
:1000680070E090E008E00EBF0FEF0DBF61E040E0E8
:10007800F1E0EAE001E0000F000F000F000F00833D
:1000880001E031965FEF508309310F5FD1F7F1E05E
:10009800E4E204E0008301E031965FEF5083093128
:1000A8000F5FD1F70FE304B90FE007B90CEF0AB9F6
:1000B80000917C00006400937C0000917A0007683E
:1000C80000937A0024D04FD100E005B908B90BB9E4
:1000D8000C94D200082F000F000F000F000F000F24
:1000E800000F302B082F06950695102B089500E079
:1000F80008B9052F0F70202B00E00BB9052F0695C6
:10010800069506950695000F000F302B0895D1E04F
:10011800C1E052D160D18883D1E0C0E03ED15BD14B
:1001280001E00883803009F408958150000F0883A6
:100138008030D9F7D1E0C1E08881F1E0E4E250E015
:100148000081081729F0561731965F5FC9F708959F
:10015800D1E0C0E08881F1E0EAE0503021F031964A
:1001680051500C94B1000081801789F208950C94C5
:100178003400D1E0C4E2F1E0EAE00881A08151E076
:10018800219631968881081721F056175F5FC1F7CD
:1001980008958081A81759F30C94C40051E0D1E068
:1001A800C2E010E020E030E08881A1DF93DF2196F3
:1001B80015B928B93BB9550F503019F100000C9406
:1001C800D500D1D051E0BBD0A3D0561739F35F5F2B
:1001D8000C94E800D1E0C1E00881F1E0E4E280811C
:1001E800081711F000000895D1E0C0E00881F1E09F
:1001F800EAE08081081711F0000008956F5F87DF3B
:10020800089509E1061B000F000F7F5F7017C8F201
:1002180070E09F5F9017A8F290E0DCDFAADF01E0B2
:10022800F1E0EAE068D05FD001E0F1E0E4E263D019
:100238005AD0B3D0D0D0043618F1063990F4BCD0D7
:10024800CAD0063960F50436E0F14030C9F04230D2
:1002580041F0433021F14130A0F50C9433010C9466
:10026800E500403069F042E0F1E0EAE000810695FF
:10027800003011F0008399F700E800830C94E50042
:10028800423079F340E0F1E0EAE00081000F01300C
:1002980010F0008321F701E000830C943301413012
:1002A80081F043E0F1E0E4E2008101500F3F11F0FA
:1002B8000083A9F607E000830C94330100830C94B3
:1002C8003301433061F341E0F1E0E4E200810F5F84
:1002D800083010F4008319F600E000830C94E50060
:1002E80000830C94330180813196808332970F5FAD
:1002F8000617C8F3089531960F5F0617E0F300E07C
:10030800089531960F5F0517E1F7000031970895BA
:10031800F1E0E4E200E0F5DFD1E0C2E00081003086
:1003280029F00000015021960C949301F1E0EAE0D5
:1003380000E0E7DF88810081082B08830895F1E059
:10034800E1E00081D1E0C2E0003031F0000001506E
:1003580021960C94A8010895F1E0E0E088810081DD
:10036800082B08830895D1E0C2E000E008832196B5
:1003780000E00883219600E00883219600E00883C6
:10038800219600E00883219600E00883219600E08A
:100398000883219600E00883089580917C00869563
:1003A800869586958695880F880F880F880F05E0B3
:1003B800802B80937C00089580917C00869586959B
:1003C80086958695880F880F880F880F04E0802B04
:1003D80080937C00089500917C00006200937C006B
:1003E80000917A00006400937A0000917A0006FD7B
:1003F800FCCF00917900E00E809179008E0D8695F2
:0A04080086958695869586950895E1
:00000001FF
