:020000020000FC
:060000000C943400000026
:020040000000BE
:1000680070E090E008E00EBF0FEF0DBF68E0F1E030
:10007800E8E001E0000F000F000F000F0083F1E03F
:10008800E8E104E000830FE304B90FE007B90CEFDF
:100098000AB900917C00006400937C0000917A000A
:1000A800076800937A00C4D000E005B908B90BB915
:1000B8000C947B00082F000F000F000F000F000F9B
:1000C800000F302B082F06950695102B089500E099
:1000D80008B9052F0F70202B00E00BB9052F0695E6
:1000E800069506950695000F000F302B089551E0F0
:1000F800D1E0C0E010E020E030E08881E8DFDADF1E
:10010800219615B928B93BB9550F503019F00000A0
:100118000C947E007F5F793108F170E09F5F993120
:10012800E8F090E000E0F1E0E8E1B1E0A8E058D0C4
:1001380099D0B6D0043638F10639C0F4A2D0B0D080
:10014800063970F50436E0F14030E9F0423071F0DC
:10015800433031F14130A0F50C94B20069D051E040
:1001680050D0561721F25F5F0C94B40042E0F1E0E2
:10017800E8E000810695003011F0008379F700E887
:1001880000830C94B20040E0F1E0E8E00081000F49
:10019800013010F0008311F701E000830C94B200E5
:1001A80043E0F1E0E8E1008101500F3F11F00083E6
:1001B800A9F607E000830C94B20000830C94B20007
:1001C80041E0F1E0E8E100810F5F083010F40083BE
:1001D80029F600E000830C94B20000830C94B2006E
:1001E800F0803196F082FC901196FC920F5F061712
:1001F800B9F7089531960F5F0517E1F700003197B9
:100208000895F1E0E8E100E0F5DFD1E0C0E0008129
:10021800003029F00000015021960C940C01F1E007
:10022800E8E000E0E7DFF88000810F2908830895FF
:10023800D1E0C0E000E00883219600E00883219621
:1002480000E00883219600E00883219600E00883F7
:10025800219600E00883219600E00883219600E0BB
:1002680008830895F0907C00F694F694F694F6943A
:10027800FF0CFF0CFF0CFF0C05E0F02AF0927C004D
:100288000895F0907C00F694F694F694F694FF0C9A
:10029800FF0CFF0CFF0C04E0F02AF0927C0008959C
:1002A80000917C00006200937C0000917A00006459
:1002B80000937A0000917A0006FDFCCF0091790046
:0202C800089597
:00000001FF
