:020000020000FC
:060000000C943400000026
:020040000000BE
:1000680070E090E008E00EBF0FEF0DBF68E0F1E030
:10007800E8E001E0000F000F000F000F008301E02F
:10008800319650E0508309310F5FD1F7F1E0E2E299
:1000980004E0008301E0319650E0508309310F5F9E
:1000A800D1F70FE304B90FE007B90CEF0AB90091D3
:1000B8007C00006400937C0000917A00076800933C
:1000C8007A00CCD000E005B908B90BB90C948900C6
:1000D800082F000F000F000F000F000F000F302B2C
:1000E800082F06950695102B089500E008B9052FEE
:1000F8000F70202B00E00BB9052F06950695069585
:100108000695000F000F302B089551E0D1E0C0E0B4
:1001180010E020E030E08881E8DFDADF219615B9C9
:1001280028B93BB9550F503019F000000C948C00D9
:100138007F5F743628F170E09F5F943608F190E095
:1001480001E0F1E0E8E066D05DD001E0F1E0E2E254
:1001580061D058D09DD0BAD0043638F10639C0F4F1
:10016800A6D0B4D0063970F50436E0F14030E9F095
:10017800423071F0433031F14130A0F50C94C400A5
:100188006DD051E054D0561701F25F5F0C94C60051
:1001980042E0F1E0E8E000810695003011F00083CC
:1001A80079F700E800830C94C40040E0F1E0E8E04F
:1001B8000081000F013010F0008311F701E0008387
:1001C8000C94C40043E0F1E0E2E2008101500F3FEB
:1001D80011F00083A9F607E000830C94C4000083A3
:1001E8000C94C40041E0F1E0E2E200810F5F0830C6
:1001F80010F4008329F600E000830C94C400008307
:100208000C94C400E0803196E08232970F5F0617A5
:10021800C8F3089531960F5F0617E0F300E00895DC
:1002280031960F5F0517E1F7000031970895F1E067
:10023800E2E200E0F5DFD1E0C0E00081003029F023
:100248000000015021960C942201F1E0E8E000E062
:10025800E7DFE88000810E2908830895D1E0C0E037
:1002680000E00883219600E00883219600E00883D7
:10027800219600E00883219600E00883219600E09B
:100288000883219600E00883219600E008830895FA
:10029800E0907C00E694E694E694E694EE0CEE0C8E
:1002A800EE0CEE0C05E0E02AE0927C000895E09068
:1002B8007C00E694E694E694E694EE0CEE0CEE0CE4
:1002C800EE0C04E0E02AE0927C00089500917C00A6
:1002D800006200937C0000917A00006400937A0029
:0E02E80000917A0006FDFCCF00917900089588
:00000001FF
