:020000020000FC
:060000000C943400000026
:020040000000BE
:1000680070E090E008E00EBF0FEF0DBF66E0F1E032
:10007800E8E001E0000F000F000F000F008301E02F
:10008800319650E0508309310F5FD1F7F1E0E2E299
:1000980004E0008301E0319650E0508309310F5F9E
:1000A800D1F70FE304B90FE007B90CEF0AB90091D3
:1000B8007C00006400937C0000917A00076800933C
:1000C8007A00D9D000E005B908B90BB90C948900B9
:1000D800082F000F000F000F000F000F000F302B2C
:1000E800082F06950695102B089500E008B9052FEE
:1000F8000F70202B00E00BB9052F06950695069585
:100108000695000F000F302B089551E0D1E0C0E0B4
:1001180010E020E030E08881E8DFDADF219615B9C9
:1001280028B93BB9550F503059F000000C948C0099
:10013800A2D051E089D0561741F35F5F0C949E001E
:1001480009E1061B000F7F5F701790F370E09F5F57
:10015800901770F390E001E0F1E0E8E068D05FD03C
:1001680001E0F1E0E2E263D05AD09FD0BCD004367F
:1001780018F1063990F4A8D0B6D0063960F50436DF
:10018800E0F14030C9F0423041F0433021F14130D4
:10019800A0F50C94CF000C949C00403069F042E02C
:1001A800F1E0E8E000810695003011F0008399F74E
:1001B80000E800830C949C00423079F340E0F1E0C1
:1001C800E8E00081000F013010F0008321F701E022
:1001D80000830C94CF00413081F043E0F1E0E2E28B
:1001E800008101500F3F11F00083A9F607E000835A
:1001F8000C94CF0000830C94CF00433061F341E0AE
:10020800F1E0E2E200810F5F083010F4008319F694
:1002180000E000830C949C0000830C94CF00E080E5
:100228003196E08232970F5F0617C8F3089531962A
:100238000F5F0617E0F300E0089531960F5F05178A
:10024800E1F7000031970895F1E0E2E200E0F5DF20
:10025800D1E0C0E00081003029F000000150219673
:100268000C942F01F1E0E8E000E0E7DFE88000818E
:100278000E2908830895D1E0C0E000E008832196A4
:1002880000E00883219600E00883219600E00883B7
:10029800219600E00883219600E00883219600E07B
:1002A8000883219600E008830895E0907C00E69496
:1002B800E694E694E694EE0CEE0CEE0CEE0C05E0FB
:1002C800E02AE0927C000895E0907C00E694E694B1
:1002D800E694E694EE0CEE0CEE0CEE0C04E0E02A4C
:1002E800E0927C00089500917C00006200937C00FD
:1002F80000917A00006400937A0000917A0006FD6C
:08030800FCCF0091790008957B
:00000001FF
