:020000020000FC
:060000000C943400000026
:020040000000BE
:1000680008E00EBF0FEF0DBF0FE304B90FE007B9AB
:100078000CEF0AB9D1E0C0E000E00883219604E261
:100088000883219600E0088321960EE708832196CD
:1000980002E40883219604E20883219608E1088394
:1000A800219600E0088300E005B908B90BB90C9463
:1000B8007A00082F000F000F000F000F000F000F2D
:1000C800302B082F06950695102B089500E008B9E7
:1000D800052F0F70202B00E00BB9052F069506950C
:1000E80006950695000F000F302B089551E0D1E0DA
:1000F800C0E010E020E030E08881E8DFDADF219618
:1001080015B928B93BB9550F503019F000000C94B7
:060118007D000C947A004A
:00000001FF
